:100000000C9463000C948B000C948B000C948B006C
:100010000C948B000C948B000C948B000C94350387
:100020000C948B000C948B000C948B000C948B0024
:100030000C948B000C948B000C948B000C948B0014
:100040000C94EB020C948B000C94B7030C9491036A
:100050000C948B000C948B000C948B000C948B00F4
:100060000C948B000C948B000000000023002600F1
:1000700029000200000000240027002A00000000E0
:1000800000250028002B00040404040404040402D6
:100090000202020202030303030303010204081025
:1000A00020408001020408102001020408102000F2
:1000B0000000080002010000030407000000000027
:1000C00000000000B50611241FBECFEFD8E0DEBF50
:1000D000CDBF11E0A0E0B1E0ECEAF1E102C0059093
:1000E0000D92A233B107D9F721E0A2E3B1E001C03C
:1000F0001D92A93EB207E1F710E0C3E6D0E004C0CC
:100100002197FE010E94CE08C236D107C9F70E948E
:100110002E040C94D4080C94000090E0FC01E155EE
:10012000FF4F2491FC01E556FF4F3491FC01E95744
:10013000FF4FE491EE23C9F0222339F0233001F17F
:10014000A8F4213019F1223029F1F0E0EE0FFF1F61
:10015000E358FF4FA591B4918FB7F894EC916111DA
:1001600026C030953E233C938FBF08952730A9F0D9
:100170002830C9F0243049F7809180008F7D03C07A
:10018000809180008F7780938000DFCF84B58F7758
:1001900084BDDBCF84B58F7DFBCF8091B0008F779E
:1001A0008093B000D2CF8091B0008F7DF9CF3E2BED
:1001B000DACFCF93DF9390E0FC01E556FF4F249117
:1001C00089579F4FFC0184918823D1F090E0880FDC
:1001D000991FFC01ED58FF4FA591B491FC01E35824
:1001E000FF4FC591D49161110EC09FB7F8948C91C7
:1001F000E22FE0958E238C932881E223E8839FBF32
:10020000DF91CF9108958FB7F894EC91E22BEC93A6
:100210008FBFF6CF3FB7F894809148019091490184
:10022000A0914A01B0914B0126B5A89B05C02F3F74
:1002300019F00196A11DB11D3FBFBA2FA92F982F0C
:100240008827BC01CD01620F711D811D911D42E007
:10025000660F771F881F991F4A95D1F708958F92CF
:100260009F92AF92BF92CF92DF92EF92FF924B019B
:100270005C010E940A016B017C010E940A016C1959
:100280007D098E099F09683E734081059105A8F399
:1002900021E0821A9108A108B10888EEC80E83E017
:1002A000D81EE11CF11C81149104A104B10429F7AA
:1002B000FF90EF90DF90CF90BF90AF909F908F9086
:1002C00008959091000189130BC0E2E7F0E0E491FA
:1002D0009FEF90930001E13049F028F0E23061F0A7
:1002E00060E00C948D0010926E00FACF90916F0038
:1002F0009D7F90936F00F4CF909170009D7F9093BD
:10030000700091E09093B0009091B100987F94605C
:100310009093B1001092B300E3CFAF92BF92CF920F
:10032000DF92EF92FF920F931F93CF93DF936C01B5
:100330007B018B01040F151FEB015E01AE18BF0896
:10034000C017D10759F06991D601ED91FC91019048
:10035000F081E02DC6010995892B79F7C501DF9160
:10036000CF911F910F91FF90EF90DF90CF90BF90B2
:10037000AF900895FC01538D448D252F30E0842FDC
:1003800090E0821B930B541710F0CF9608950197BD
:100390000895FC01918D828D981761F0A28DAE0FAA
:1003A000BF2FB11D5D968C91928D9F5F9F73928F31
:1003B00090E008958FEF9FEF0895FC01918D828D5D
:1003C000981731F0828DE80FF11D858D90E008952A
:1003D0008FEF9FEF0895FC01918D228D892F90E082
:1003E000805C9F4F821B91098F73992708958CE43D
:1003F00091E00E94EB0121E0892B09F420E0822F9B
:10040000089580E090E0892B29F00E94F701811186
:100410000C9400000895FC01A48DA80FB92FB11D04
:10042000A35ABF4F2C91848D90E001968F7399272A
:10043000848FA689B7892C93A089B1898C91837008
:1004400080648C93938D848D981306C00288F38901
:10045000E02D80818F7D80830895EF92FF920F932E
:100460001F93CF93DF93EC0181E0888F9B8D8C8D60
:1004700098131AC0E889F989808185FF15C09FB754
:10048000F894EE89FF896083E889F9898081837017
:10049000806480839FBF81E090E0DF91CF911F91C6
:1004A0000F91FF90EF900895F62E0B8D10E00F5FE7
:1004B0001F4F0F731127E02E8C8D8E110CC00FB6BD
:1004C00007FCFACFE889F989808185FFF5CFCE0155
:1004D0000E940B02F1CFEB8DEC0FFD2FF11DE35AC3
:1004E000FF4FF0829FB7F8940B8FEA89FB898081D8
:1004F0008062CFCFCF93DF93EC01888D8823B9F052
:10050000AA89BB89E889F9898C9185FD03C080811E
:1005100086FD0DC00FB607FCF7CF8C9185FFF2CF9B
:10052000808185FFEDCFCE010E940B02E9CFDF91E4
:10053000CF910895FC0101900020E9F73197AF01B8
:10054000481B590BBC018CE491E00C948D018F92F7
:100550009F92AF92BF920F931F93CF93DF93CDB72C
:10056000DEB7A1970FB6F894DEBF0FBECDBF19A2BC
:10057000423008F44AE08E010F5D1F4F842E912C0B
:10058000B12CA12CA50194010E94AC08E62FB90161
:10059000CA01EA30F4F4E05DD801EE938D01232B1B
:1005A000242B252B79F790E080E0109719F0CD01EE
:1005B0000E949A02A1960FB6F894DEBF0FBECDBF7F
:1005C000DF91CF911F910F91BF90AF909F908F902F
:1005D0000895E95CE1CF1F920F920FB60F9211249C
:1005E0002F933F938F939F93AF93BF938091440139
:1005F00090914501A0914601B0914701309143018E
:1006000023E0230F2D3758F50196A11DB11D20932E
:1006100043018093440190934501A0934601B09318
:1006200047018091480190914901A0914A01B09100
:100630004B010196A11DB11D809348019093490182
:10064000A0934A01B0934B01BF91AF919F918F91BD
:100650003F912F910F900FBE0F901F90189526E895
:10066000230F0296A11DB11DD2CF1F920F920FB67C
:100670000F9211242F933F934F935F936F937F9328
:100680008F939F93AF93BF93EF93FF938091370125
:1006900090913801A0913901B0913A01892B8A2BB0
:1006A0008B2BD1F190913201E0913301F091340123
:1006B0008081892780838091370190913801A091B2
:1006C0003901B0913A01181619061A061B069CF456
:1006D0008091370190913801A0913901B0913A0190
:1006E0000197A109B1098093370190933801A09334
:1006F0003901B0933A01FF91EF91BF91AF919F9172
:100700008F917F916F915F914F913F912F910F90BA
:100710000FBE0F901F901895809100010E946101FB
:10072000EACF1F920F920FB60F9211242F933F938F
:100730004F935F936F937F938F939F93AF93BF93E9
:10074000EF93FF938CE491E00E940B02FF91EF91F5
:10075000BF91AF919F918F917F916F915F914F91D9
:100760003F912F910F900FBE0F901F9018951F92E1
:100770000F920FB60F9211242F938F939F93EF93A5
:10078000FF93E0915C01F0915D018081E091620155
:10079000F091630182FD1BC09081809165018F5FA4
:1007A0008F7320916601821741F0E0916501F0E0BE
:1007B000E45BFE4F958F80936501FF91EF919F91D0
:1007C0008F912F910F900FBE0F901F9018958081E1
:1007D000F4CFCF92DF92EF92FF920F931F93E82F07
:1007E000F92F05C0015011092109310961F19081EA
:1007F00096239417B9F305C0015011092109310955
:1008000011F1908196239413F7CFC12CD12CE12CB8
:10081000F12C0AC08FEFC81AD80AE80AF80A0C159A
:100820001D052E053F0579F080818623841791F3FD
:100830006C2D7D2D8E2D9F2D1F910F91FF90EF9090
:10084000DF90CF90089560E070E080E090E01F912D
:100850000F91FF90EF90DF90CF900895789484B53A
:10086000826084BD84B5816084BD85B5826085BDAC
:1008700085B5816085BD80916E00816080936E003A
:10088000109281008091810082608093810080912C
:1008900081008160809381008091800081608093DD
:1008A00080008091B10084608093B1008091B0009D
:1008B00081608093B00080917A00846080937A0098
:1008C00080917A00826080937A0080917A008160C2
:1008D00080937A0080917A00806880937A001092E9
:1008E000C10061E089E00E94D90060E088E00E94D8
:1008F000D90061E08BE00E94D900E0915C01F091A9
:100900005D0182E08083E0915801F09159011082ED
:10091000E0915A01F0915B018FEC808310926401A9
:10092000E0916001F091610186E08083E0915E01D9
:10093000F0915F01808180618083E0915E01F091A0
:100940005F01808188608083E0915E01F0915F01AA
:10095000808180688083E0915E01F0915F018081F9
:100960008F7D808342E9242E40E0342EC6EAD0E019
:1009700060E089E00E948D0083E090E00197F1F74C
:1009800061E089E00E948D0083E290E00197F1F739
:1009900060E089E00E948D00E3EAF0E06491EFE816
:1009A000F0E08491E82FF0E0EE0FFF1FE859FF4FD1
:1009B0008591949100E412E42FE030E0462F0E94EC
:1009C000E903611571058105910529F06F5F7F4F7E
:1009D0008F4F9F4F9F700E94850728E23EE74CE0B3
:1009E0005DE30E943A0820E030E040E05FE30E94CF
:1009F0003A086B017C0183E191E00E949A02A70111
:100A00009601C701B6010E94A708882309F43DC0DA
:100A10008EE191E00E949A028AE291E00E949A029D
:100A20008EE291E00E949A0220E030E0A901C70125
:100A3000B6010E94350818160CF093C120E030E092
:100A400040EF51E4C701B6010E944F0718160CF49D
:100A500088C1809100018B3009F0A9C0E2E7F0E085
:100A6000149117FD4AC161E08BE00E94D900112367
:100A700009F40CC1123009F021C18091B100887FC6
:100A800084608093B10081EB58C146015701E8941E
:100A9000B7F82FEF3FEF4FE75FE7C501B4010E94C2
:100AA000A70881110DC02FEF3FEF4FE75FE7C501AA
:100AB000B4010E944F0718161CF482E291E0AACFFD
:100AC0002FEF3FEF4FE75FE4C701B6010E94350803
:100AD00018161CF486E291E09DCF2FEF3FEF4FE711
:100AE0005FECC701B6010E944F0787FDF3CF20E0FE
:100AF00030E0A901C701B6010E944F0787FF54C02B
:100B00006DE28CE491E00E942D02C701B60190587D
:100B10002AE037ED43EA5BE30E94E3062B013C0148
:100B20000E9454074B015C010E9483079B01AC01AA
:100B3000C301B2010E94E2062B013C014AE0C5015B
:100B4000B4010E94A7026EE28CE491E00E942D02A3
:100B500020E030E040E251E4C301B2010E943A08D3
:100B60002B013C010E9454074B01B12CA12C4AE0FF
:100B7000C501B4010E94A702C501B4010E94830708
:100B80009B01AC01C301B2010E94E20620E030E00B
:100B900040E251E40E943A080E94540790E080E04D
:100BA0004AE00E94A70238CFC701B601B1CF8F3FFC
:100BB00009F0A3C08BE080930001E2E7F0E014911C
:100BC0001F3F09F49AC0113019F150F0123009F4A6
:100BD0003CC017FD92C061E08BE00E94D9004ACF73
:100BE00014BC15BC84B5826084BD85B5816085BDAB
:100BF000F1018491E82FF0E0EE0FFF1FE358FF4F63
:100C000085919491FE0184918093360110E02BCF61
:100C10001092800010928100809181008860809302
:100C2000810080918100816080938100F101849135
:100C3000E82FF0E0EE0FFF1FE358FF4F85919491EE
:100C4000FE018491809335010ECF1092B000109276
:100C5000B1008091B00082608093B0008091B100BB
:100C600081608093B100F1018491E82FF0E0EE0FF4
:100C7000FF1FE358FF4F8591949190933401809327
:100C80003301FE01849180933201EDCE85B5887FDA
:100C9000836085BD81EB87BD88E191E0A0E0B0E095
:100CA00080933F0190934001A0934101B093420192
:100CB00080916E00826080936E001FC01130B1F58C
:100CC00080918100887F81608093810083EA9CE22B
:100CD000909389008093880088E191E0A0E0B0E0E3
:100CE00080933B0190933C01A0933D01B0933E0162
:100CF00080916F00826080936F0064EF71E080E00C
:100D000090E00E942F0164E670E080E090E00E9495
:100D10002F01A0E0B0E0AB2B09F42ACE0E94F7012E
:100D2000882309F425CE0E94000022CE123021F043
:100D30001111E3CF83EAAFCF83EA8093B30088E158
:100D400091E0A0E0B0E08093370190933801A09348
:100D50003901B0933A0180917000826080937000F5
:100D6000CCCF8BE00E946101CECFECE4F1E01382A6
:100D7000128288EE93E0A0E0B0E084839583A6839E
:100D8000B78385E091E09183808385EC90E095873F
:100D9000848784EC90E09787868780EC90E0918B45
:100DA000808B81EC90E0938B828B82EC90E0958B32
:100DB000848B86EC90E0978B868B118E128E138E2F
:100DC000148E08955058BB27AA270E94FA060C9447
:100DD000FB070E94ED0738F00E94F40720F039F479
:100DE0009F3F19F426F40C94EA070EF4E095E7FB14
:100DF0000C94E407E92F0E940C0858F3BA17620715
:100E000073078407950720F079F4A6F50C942E0853
:100E10000EF4E0950B2EBA2FA02D0B01B901900115
:100E20000C01CA01A0011124FF27591B99F0593F59
:100E300050F4503E68F11A16F040A22F232F342FA1
:100E40004427585FF3CF469537952795A795F040EF
:100E50005395C9F77EF41F16BA0B620B730B840B04
:100E6000BAF09150A1F0FF0FBB1F661F771F881FBC
:100E7000C2F70EC0BA0F621F731F841F48F4879514
:100E800077956795B795F7959E3F08F0B0CF939506
:100E9000880F08F09927EE0F9795879508950E947F
:100EA000C00708F481E008950E94140888F09F5755
:100EB00098F0B92F9927B751B0F0E1F0660F771F7E
:100EC000881F991F1AF0BA95C9F714C0B13091F074
:100ED0000E942E08B1E008950C942E08672F782FF9
:100EE0008827B85F39F0B93FCCF386957795679539
:100EF000B395D9F73EF490958095709561957F4FA5
:100F00008F4F9F4F0895E89409C097FB3EF490954A
:100F10008095709561957F4F8F4F9F4F9923A9F0D2
:100F2000F92F96E9BB279395F69587957795679561
:100F3000B795F111F8CFFAF4BB0F11F460FF1BC0A5
:100F40006F5F7F4F8F4F9F4F16C0882311F096E938
:100F500011C0772321F09EE8872F762F05C06623E6
:100F600071F096E8862F70E060E02AF09A95660F9F
:100F7000771F881FDAF7880F9695879597F9089558
:100F8000990F0008550FAA0BE0E8FEEF161617069A
:100F9000E807F907C0F012161306E407F50798F002
:100FA000621B730B840B950B39F40A2661F0232B1B
:100FB000242B252B21F408950A2609F4A140A69597
:100FC0008FEF811D811D089597F99F6780E870E07C
:100FD00060E008959FEF80EC089500240A941616AF
:100FE000170618060906089500240A941216130617
:100FF000140605060895092E0394000C11F48823A5
:1010000052F0BB0F40F4BF2B11F460FF04C06F5FC0
:101010007F4F8F4F9F4F089557FD9058440F551F96
:1010200059F05F3F71F04795880F97FB991F61F06A
:101030009F3F79F087950895121613061406551FE1
:10104000F2CF4695F1DF08C0161617061806991F4D
:10105000F1CF86957105610508940895E894BB2742
:1010600066277727CB0197F908950E94C00708F4F7
:101070008FEF08950E944D080C94FB070E94ED0726
:1010800038F00E94F40720F0952311F00C94E40747
:101090000C94EA0711240C942F080E940C0870F39A
:1010A000959FC1F3950F50E0551F629FF001729F0D
:1010B000BB27F00DB11D639FAA27F00DB11DAA1F1C
:1010C000649F6627B00DA11D661F829F2227B00D69
:1010D000A11D621F739FB00DA11D621F839FA00DF4
:1010E000611D221F749F3327A00D611D231F849F44
:1010F000600D211D822F762F6A2F11249F5750409B
:101100009AF0F1F088234AF0EE0FFF1FBB1F661F15
:10111000771F881F91505040A9F79E3F510580F0DE
:101120000C94E4070C942F085F3FE4F3983ED4F34B
:10113000869577956795B795F795E7959F5FC1F782
:10114000FE2B880F911D9695879597F908950E941B
:10115000C007880B990B0895A1E21A2EAA1BBB1B8E
:10116000FD010DC0AA1FBB1FEE1FFF1FA217B30773
:10117000E407F50720F0A21BB30BE40BF50B661F89
:10118000771F881F991F1A9469F76095709580954D
:1011900090959B01AC01BD01CF010895EE0FFF1F9B
:0C11A0000590F491E02D0994F894FFCF25
:1011AC00FF000000002D028D01BA017A02EB01C98B
:1011BC0001DD0144697374616E63653A20006E61F0
:1011CC006E00696E66006F76660020636D000D0A16
:0211DC00000011
:00000001FF
